:020000040800F2
:100000004017002079260008574C00084D260008AC
:100010004D2600084D2600084D260008000000006F
:10002000000000000000000000000000CD220008D9
:100030004D26000800000000792200081938000849
:100040007D2300087D2300087D2300087D23000810
:100050007D2300087D2300087D2300087D23000800
:100060007D2300087D2300087D2300087D230008F0
:100070007D2300087D2300087D2300087D230008E0
:100080007D2300087D2300087D2300087D230008D0
:100090007D2300087D2300087D2300087D230008C0
:1000A0007D2300087D2300087D2300087D230008B0
:1000B0007D2300087D2300087D2300087D230008A0
:1000C0007D2300087D2300087D2300087D23000890
:1000D0007D2300087D2300087D2300087D23000880
:1000E0007D2300087D2300087D2300087D23000870
:1000F0007D2300087D2300087D2300087D23000860
:100100007D2300087D2300087D2300087D2300084F
:100110007D2300087D2300087D2300087D2300083F
:100120007D2300087D2300087D2300087D2300082F
:100130007D2300087D2300087D2300087D2300081F
:100140007D2300087D2300087D2300087D2300080F
:100150007D2300087D2300087D2300087D230008FF
:100160007D2300087D2300087D2300087D230008EF
:100170007D2300087D2300087D2300087D230008DF
:100180007D2300087D2300087D2300087D230008CF
:040190007D230008C3
:04019400FFFFFFFF6B
:1001980081F0004102E000BF83F0004330B54FEA30
:1001A80041044FEA430594EA050F08BF90EA020F9D
:1001B8001FBF54EA000C55EA020C7FEA645C7FEA30
:1001C800655C00F0E2804FEA5454D4EB5555B8BF53
:1001D8006D420CDD2C4480EA020281EA030382EAC4
:1001E800000083EA010180EA020281EA0303362D56
:1001F80088BF30BD11F0004F4FEA01314FF4801C29
:100208004CEA113102D0404261EB410113F0004F3A
:100218004FEA03334CEA133302D0524263EB4303F1
:1002280094EA050F00F0A780A4F10104D5F1200E8F
:100238000DDB02FA0EFC22FA05F2801841F10001EA
:1002480003FA0EF2801843FA05F359410EE0A5F1BE
:1002580020050EF1200E012A03FA0EFC28BF4CF0EF
:10026800020C43FA05F3C01851EBE37101F00045A5
:1002780007D54FF0000EDCF1000C7EEB00006EEBB2
:100288000101B1F5801F1BD3B1F5001F0CD349083C
:100298005FEA30004FEA3C0C04F101044FEA445293
:1002A80012F5800F80F09A80BCF1004F08BF5FEA1A
:1002B800500C50F1000041EB045141EA050130BDFA
:1002C8005FEA4C0C404141EB0101013C28BFB1F50C
:1002D800801FE9D291F0000F04BF01460020B1FA57
:1002E80081F308BF2033A3F10B03B3F120020CDA2A
:1002F8000C3208DD02F1140CC2F10C0201FA0CF008
:1003080021FA02F10CE002F11402D8BFC2F1200C6C
:1003180001FA02F120FA0CFCDCBF41EA0C01904022
:10032800E41AA2BF01EB0451294330BD6FEA04046B
:100338001F3C1CDA0C340EDC04F11404C4F1200256
:1003480020FA04F001FA02F340EA030021FA04F368
:1003580045EA030130BDC4F10C04C4F1200220FABF
:1003680002F001FA04F340EA0300294630BD21FAFD
:1003780004F0294630BD94F0000F83F4801306BFC3
:1003880081F480110134013D4EE77FEA645C18BFB7
:100398007FEA655C29D094EA050F08BF90EA020F4E
:1003A80005D054EA000C04BF1946104630BD91EA46
:1003B800030F1EBF0021002030BD5FEA545C05D149
:1003C8004000494128BF41F0004130BD14F5800488
:1003D8003CBF01F5801130BD01F0004545F0FE41FC
:1003E80041F470014FF0000030BD7FEA645C1ABF31
:1003F800194610467FEA655C1CBF0B46024650EA68
:10040800013406BF52EA033591EA030F41F4002193
:1004180030BD00BF90F0000F04BF0021704730B519
:100428004FF4806404F132044FF000054FF00001EE
:1004380050E700BF90F0000F04BF0021704730B5AF
:100448004FF4806404F1320410F0004548BF404284
:100458004FF000013EE700BF42004FEAE2014FEAD9
:1004680031014FEA02701FBF12F07F4393F07F4FB4
:1004780081F06051704732F07F4208BF704793F0B7
:100488007F4F04BF41F40021704730B54FF46074CA
:1004980001F0004521F000411CE700BF50EA0102CD
:1004A80008BF704730B54FF000050AE050EA010276
:1004B80008BF704730B511F0004502D5404261EBE6
:1004C80041014FF4806404F132045FEA915C3FF427
:1004D800D8AE4FF003025FEADC0C18BF03325FEAC4
:1004E800DC0C18BF033202EBDC02C2F1200300FA75
:1004F80003FC20FA02F001FA03FE40EA0E0021FA9A
:1005080002F11444BDE600BF70B54FF0FF0C4CF487
:10051800E06C1CEA11541DBF1CEA135594EA0C0F39
:1005280095EA0C0F00F0DEF82C4481EA030621EA74
:100538004C5123EA4C5350EA013518BF52EA0335AF
:1005480041F4801143F4801338D0A0FB02CE4FF061
:100558000005E1FB02E506F00042E0FB03E54FF091
:100568000006E1FB03569CF0000F18BF4EF0010E89
:10057800A4F1FF04B6F5007F64F5407404D25FEA85
:100588004E0E6D4146EB060642EAC62141EA555138
:100598004FEAC52040EA5E504FEACE2EB4F1FD0C7A
:1005A80088BFBCF5E06F1ED8BEF1004F08BF5FEAF8
:1005B800500E50F1000041EB045170BD06F00046AA
:1005C80046EA010140EA020081EA0301B4EB5C0457
:1005D800C2BFD4EB0C0541EA045170BD41F480114F
:1005E8004FF0000E013C00F3AB8014F1360FDEBF74
:1005F800002001F0004170BDC4F10004203C35DA50
:100608000C341BDC04F11404C4F1200500FA05F3D2
:1006180020FA04F001FA05F240EA020001F0004273
:1006280021F0004110EBD37021FA04F642EB0601E9
:100638005EEA430E08BF20EAD37070BDC4F10C0413
:10064800C4F1200500FA04F320FA05F001FA04F2D7
:1006580040EA020001F0004110EBD37041F10001C3
:100668005EEA430E08BF20EAD37070BDC4F12005CE
:1006780000FA05F24EEA020E20FA04F301FA05F236
:1006880043EA020321FA04F001F0004121FA04F2DE
:1006980020EA020000EBD3705EEA430E08BF20EAAE
:1006A800D37070BD94F0000F0FD101F000464000E8
:1006B80041EB010111F4801F08BF013CF7D041EA6A
:1006C800060195F0000F18BF704703F0004652006E
:1006D80043EB030313F4801F08BF013DF7D043EA3F
:1006E8000603704794EA0C0F0CEA135518BF95EAF5
:1006F8000C0F0CD050EA410618BF52EA4306D1D17C
:1007080081EA030101F000414FF0000070BD50EA9A
:10071800410606BF1046194652EA430619D094EA24
:100728000C0F02D150EA013613D195EA0C0F05D10E
:1007380052EA03361CBF104619460AD181EA030162
:1007480001F0004141F0FE4141F470014FF000001A
:1007580070BD41F0FE4141F4780170BD70B54FF0B5
:10076800FF0C4CF4E06C1CEA11541DBF1CEA135535
:1007780094EA0C0F95EA0C0F00F0A7F8A4EB050417
:1007880081EA030E52EA03354FEA013100F088800E
:100798004FEA03334FF0805545EA131343EA1263D7
:1007A8004FEA022245EA111545EA10654FEA00268C
:1007B8000EF000419D4208BF964244F1FD0404F545
:1007C800407402D25B084FEA3202B61A65EB0305A1
:1007D8005B084FEA32024FF480104FF4002CB6EB5E
:1007E800020E75EB030E22BFB61A754640EA0C00DE
:1007F8005B084FEA3202B6EB020E75EB030E22BF1E
:10080800B61A754640EA5C005B084FEA3202B6EB5E
:10081800020E75EB030E22BFB61A754640EA9C001D
:100828005B084FEA3202B6EB020E75EB030E22BFED
:10083800B61A754640EADC0055EA060E18D04FEAAB
:10084800051545EA16754FEA06164FEAC30343EA4B
:1008580052734FEAC2025FEA1C1CC0D111F4801F18
:100868000BD141EA00014FF000004FF0004CB6E711
:1008780011F4801F04BF01430020B4F1FD0C88BFB0
:10088800BCF5E06F3FF6AFAEB5EB030C04BFB6EBBB
:10089800020C5FEA500C50F1000041EB045170BDAE
:1008A8000EF0004E4EEA113114EB5C04C2BFD4EBDB
:1008B8000C0541EA045170BD41F480114FF0000E5F
:1008C800013C90E645EA060E8DE60CEA135594EADB
:1008D8000C0F08BF95EA0C0F3FF43BAF94EA0C0FDE
:1008E8000AD150EA01347FF434AF95EA0C0F7FF453
:1008F80025AF104619462CE795EA0C0F06D152EAA7
:1009080003353FF4FDAE1046194622E750EA41068A
:1009180018BF52EA43067FF4C5AE50EA41047FF49B
:100928000DAF52EA43057FF4EBAE12E74FEA4102FE
:1009380012F5001215D211D56FF47873B3EB625229
:1009480012D94FEAC12343F0004343EA505311F050
:10095800004F23FA02F018BF404270474FF00000E2
:10096800704750EA013005D111F0004008BF6FF020
:10097800004070474FF00000704700BF4FEA410247
:10098800B2F1E04324BFB3F5001CDCF1FE5C0DD9E5
:1009980001F0004C4FEAC0024CEA5070B2F1004F2F
:1009A80040EB830008BF20F00100704711F0804F32
:1009B80021D113F13872BCBF01F00040704741F4F7
:1009C80080114FEA5252C2F11802C2F1200C10FAFB
:1009D8000CF320FA02F018BF40F001004FEAC123DF
:1009E8004FEAD32303FA0CFC40EA0C0023FA02F383
:1009F8004FEA4303CCE77FEA625307D150EA013359
:100A08001EBF4FF0FE4040F44000704701F0004028
:100A180040F0FE4040F40000704700BF7BB972B957
:100A28000029BEBF00204FF0004106E008BF0028A3
:100A38001CBF6FF000414FF0FF3000F057B8ADF128
:100A4800080C6DE904CE002909DB002B1ADB00F045
:100A58004FF8DDF804E0DDE9022304B070474042B6
:100A680061EB4101002B1BDB00F042F8DDF804E0EC
:100A7800DDE9022304B0404261EB4101524263EBDD
:100A880043037047524263EB430300F031F8DDF84B
:100A980004E0DDE9022304B0404261EB4101704704
:100AA800524263EB430300F023F8DDF804E0DDE98C
:100AB800022304B0524263EB4303704753B94AB967
:100AC800002908BF00281CBF4FF0FF314FF0FF304E
:100AD80000F00CB8ADF1080C6DE904CE00F008F890
:100AE800DDF804E0DDE9022304B07047704700BF79
:100AF8002DE9F04786468C460846089E15467446FA
:100B08001946002B40F0C2808542B2FA82F245D9DC
:100B18004AB1C2F1200300FA02FC2EFA03F3954011
:100B280043EA0C0C94404FEA154EA8B2BCFBFEF801
:100B3800230C0EFB18CC08FB00F943EA0C4399453B
:100B480028D9EB1808F1FF3704D2994502D9A8F142
:100B580002072B44A3EB0903A4B2B3FBFEFC0EFB74
:100B68001C330CFB00F044EA0344A04214D92C19AE
:100B78000CF1FF3304D2A04202D9ACF102032C4499
:100B8800241A43EA07401EB1D4400023346073603E
:100B9800BDE8F0874746DDE76346F1E792BB431BB4
:100BA80001214FEA154EAFB2B3FBFEFC200C0EFB41
:100BB8001C330CFB07F840EA0343984562D9EB184D
:100BC8000CF1FF3004D2984502D9ACF102002B4455
:100BD800A3EB0803A4B2B3FBFEFC0EFB1C330CFB17
:100BE80007F744EA0344A7424ED92C190CF1FF3306
:100BF80004D2A74202D9ACF102032C44E41B43EA15
:100C08000040C0E7C2F1200320FA03F1954090406C
:100C18002EFA03F303434FEA154EAFB2B1FBFEFCC5
:100C28000EFB1C10190C0CFB07F841EA0041884523
:100C380004FA02F422D969180CF1FF3004D288456D
:100C480002D9ACF102002944A1EB08019BB2B1FB27
:100C5800FEFC0EFB1C110CFB07F743EA01439F4205
:100C68000ED9EB180CF1FF3104D29F4202D9ACF136
:100C780002012B44DB1B41EA004192E76046E3E7AF
:100C88006146F7E76046A3E76346B7E7834206D9BC
:100C980016B9002108467BE7C6E900E0F9E7B3FA90
:100CA80083F78FB9834201D3724508D8BEEB02049B
:100CB80060EB030301209C461EB9002168E7384613
:100CC800FAE7C6E9004CF8E7C7F1200CBB4022FA66
:100CD8000CF41C432EFA0CF120FA0CF3B840014333
:100CE8004FEA14490EFA07F5B3FBF9F81FFA84FE28
:100CF80009FB18300B0C08FB0EFA43EA00439A452F
:100D080002FA07F240D9E31808F1FF3004D29A45F5
:100D180002D9A8F102002344A3EB0A0389B2B3FB6A
:100D2800F9F809FB183308FB0EFE41EA03418E452A
:100D38002CD9611808F1FF3304D28E4502D9A8F1E5
:100D48000203214443EA0040A0FB0298A1EB0E01F4
:100D58004145CE46434602D306D14D4504D2B9EBB0
:100D6800020E68EB04030138002EA6D0B5EB0E0284
:100D780061EB030101FA0CFC22FA07F34CEA0303C6
:100D8800F940C6E9003198E74046C5E74346D9E748
:100D9800D0B504464068FFF74DFB09A3D3E900230B
:100DA800FFF7DCFC064620680F46FFF743FB0246C8
:100DB8000B4630463946FFF7F1F9D0BDAFF3008056
:100DC8000000000080842E41032973B505461446AF
:100DD80060D8002A40D0072A5CD15A681C68384875
:100DE800D1171346C4FB0031012B71F1000225DB3A
:100DF80000F56E1000F65D7018182FA3D3E90023D4
:100E080041F10001FFF70AFE80B202281ED0042833
:100E18001ED008281ED0102833D1032329492A6957
:100E280051F823101161526814691B0130222321E3
:100E38002846A44602B0BDE870406047224818180A
:100E480061F100011CA3D3E90023DBE70023E5E7F8
:100E58000123E3E70223E1E71A881C4B33F8021B5E
:100E68008A420BD12E6973680DF107029B68202115
:100E780028469847002807DA02B070BD01340B2CC9
:100E8800ECD16FF01500F7E79DF80720130704D49D
:100E9800082C05D16FF08500EEE70A2C08BF09245D
:100EA800736802F00F0242EA0412DB68D2B2202112
:100EB80028469847E0E700BF3AA3950000000000E5
:100EC80040420F0024000020632EB5FFB06D0008DB
:100ED800F8B5044608461546FFF7ACFA0646284614
:100EE8000F46FFF7B9FA02460B4630463946FFF778
:100EF8000BFB0FA3D3E90023FFF706FB0E4B0022E1
:100F0800FFF72CFC06460F46FFF710FD0A4B206042
:100F1800002230463946FFF7F7FAFFF707FD4FF48E
:100F28007A7290FBF2F303FB120353436360F8BD3C
:100F380005A3923A019D234000408F400000000025
:100F4800D0B504460846FFF775FA134B0022FFF7A1
:100F5800DBFA0FA3D3E90023FFF7D6FA0F4B0022E1
:100F6800FFF7FCFB06460F46FFF7E0FC0B4B206043
:100F7800002230463946FFF7C7FAFFF7D7FC4FF48F
:100F88007A7290FBF2F303FB120353436360D0BD04
:100F98006811F16346DF913F0080114000408F40A7
:100FA800032970B504460D4604D0072953D06FF0C5
:100FB800850027E0002A3BD0072AF8D158681A682C
:100FC8005B4BC117C2FB0301012871F100033FDB32
:100FD800584BC01841F100014FA3D3E90023FFF794
:100FE8001DFD022826690ED010280ED004280ED028
:100FF80008282DD12946204604F020FE002808DACA
:101008006FF0040070BD0025F4E70125F2E7022522
:10101800F0E7494B33F81500FFF70CFA40A3D3E982
:101028000023FFF771FAFFF7A9FCF0600020E9E759
:101038001988424B33F8020B814206D1D1B22046BF
:1010480002F07AF90028F1DADAE701320B2AF1D155
:101058006FF01500D6E7002A4DD0072AA7D15A68A5
:101068001D683348D11713460A46C5FB0032B4251C
:10107800A3FB0501012B05FB021172F100022ADB1B
:101088002F4BC01828A3D3E9002341F10001FFF733
:10109800C5FCF52827D0B0F5FA7F26D0B0F57A7FC1
:1010A80025D0B0F5FA6F24D07D28D1D10425294662
:1010B8002046266904F0D5FD0028A1DB214B33F832
:1010C8001500FFF7B7F9204B0022FFF71DFAFFF7CD
:1010D80055FCF061AAE71D4BC01861F1000112A38D
:1010E800D3E90023D3E70025E1E70125DFE702255F
:1010F800DDE70325DBE71988104B33F8020B814243
:1011080004D1D1B2204604F0C1FD9BE701320B2A7D
:10111800F3D19DE7AFF300803AA3950000000000EB
:1011280008AC1C5A643BAF3FD8EF2F00000000000A
:1011380040420F009DD14A00D06D0008D86D0008CC
:10114800ECF71700C66D0008008011401408E8FF8E
:1011580008B583683921DB689847024A1368013368
:10116800136008BD600700202DE9F04FABB0954C27
:10117800204605F041F830B9216893482BB0BDE806
:10118800F04F03F027BB914C204605F035F80028B6
:10119800F2D08F4C204605F02FF80028ECD08D4D6A
:1011A800284605F029F808B92968E6E78A4D28464F
:1011B80005F022F80028F7D0D0230026CDE9103614
:1011C800A5682F682FB9854803F004FB2BB0BDE84C
:1011D800F08F10AB324603212046B8470028F2DBD7
:1011E8002F680FB97E48EFE710AB3246072120463B
:1011F800B8470028F6DB7B4B0793AB681BB17A4AEC
:10120800734807A99847DFF8BC81704DDFF8C4918F
:101218000124404603F0D5FA002803DA734801F0A8
:101228002DFBD3E7284603F0CCFA002801DA7048F2
:10123800F5E7484603F0C5FA002803DA4D3001D037
:101248006C48ECE7644803F0BCFA002801DA6A4805
:10125800E5E708AA40460D2103F0B7FA0CAA404674
:10126800102103F0B2FA0EAA28460E2103F0ADFAB7
:101278000AAA28460D2103F0A8FA12AA5448032105
:1012880003F0A3FA1EAA5248072103F09EFA18AAEF
:101298004846032103F099FA24AA0B214E4803F08B
:1012A80094FA564801F0EAFA554801F0E7FA08A816
:1012B800FFF76EFD02460B46524801F0DFFA0CA814
:1012C800FFF766FD02460B464F4801F0D7FA0EA815
:1012D800FFF75EFD02460B464C4801F0CFFA0AA81C
:1012E800FFF756FD02460B46494801F0C7FA12A817
:1012F800FFF74EFD824614A88B46FFF749FD0646C8
:1013080016A80F46FFF744FD52465B46CDE9020199
:10131800CDE900673F4801F0B1FA1EA8FFF738FD94
:10132800824620A88B46FFF733FD064622A80F46C3
:10133800FFF72EFDCDE90067CDE9020152465B4675
:10134800354801F09BFA354B35481A68214601F0BB
:1013580095FA18A8FFF71CFD02460B461AA8CDE916
:101368000423FFF715FD06461CA80F46FFF710FDDE
:10137800DDE90423CDE90201CDE90067294801F040
:101388007DFA24A8FFF704FD02460B4626A8CDE9FE
:101398000423FFF7FDFC064628A80F46FFF7F8FCD4
:1013A800CDE90067CDE90201DDE904231E4801F01B
:1013B80065FA04F1010A44F62060002103F00AF8F6
:1013C800544626E724660008F46D00086C66000899
:1013D800846600083C660008546600080B6E000826
:1013E8003D6E00080100030059110008666E0008F0
:1013F800896E0008AD6E0008D96E0008046F0008F9
:10140800086F00082C6F0008496F00086C6F00080F
:10141800886F0008A66F0008D96F000860070020D1
:10142800097000081F70000854700008014B1B6801
:10143800184700BF00000020014B1860704700BF2C
:101448000000002007B50B46002102460091034822
:1014580000F006F803B05DF804FB00BF351400087F
:101468002DE9F04F9FB08246039116461C46002591
:10147800307810B9284600F08BBD731C25280693D8
:1014880006D00399D0470028C0F2828501352BE2A7
:101498001822002110A803F008FC7378252B7DD0B2
:1014A8000023701C98469E469C461F46014610F82D
:1014B800012B2B2A00F0A18000F29880202A00F04E
:1014C8009F80232A00F09F802BB19DF8483043F07D
:1014D80040038DF84830B8F1000F05D09DF848302A
:1014E80043F020038DF84830BEF1000F05D09DF879
:1014F800483043F010038DF84830BCF1000F05D098
:101508009DF8483043F008038DF848302FB19DF816
:10151800483043F004038DF848309DF8483003F014
:101528004400442803D16FF386138DF848309DF8A2
:1015380048302A2A43F080038DF848307FD19DF83F
:10154800492042F001024B1C8DF849201A782E2AB6
:101558009DF849200CBF0121002161F341028DF85B
:10156800492078D15A782A2A6ED0013300224FF0C8
:101578000A0C194611F8010BA0F13007092F40F2A7
:10158800AF809DF848101492C1F3400040EAD27031
:101598000A4660F341028DF848205CE0B21C0692CE
:1015A8008DF84B309DF84930DF0740F1548154F8ED
:1015B800042B0492002A08DA9DF8482042F004021D
:1015C8008DF84820049A52420492580740F14B8102
:1015D80054F8047B002F80F24A819DF849306FF35C
:1015E80041038DF849304FF0FF3740E12D2A0DD0E7
:1015F800302A7FF469AF012358E74FF0010C55E713
:101608004FF0010E52E74FF001084FE701274DE771
:101618000EFB0272303A0346184610F8017BA7F118
:10162800300CBCF1090FF3D999428FD09DF84810BE
:101638001392D20F62F341018DF8481086E70B46EA
:1016480000224FF00A0EE7E79DF8492042F0040215
:101658008DF8492002331A786C2A61D045D8682A57
:101668004BD06A2A65D04C2A6BD013F8012B06930D
:10167800782A8DF84B2000F2AD806D2A6ED8692A41
:1016880000F2A880572A00F28880412A04D0A2F1EB
:101698004503022B00F29E809DF84A3002F0DF02DB
:1016A8000421A2F1410861F30203D8F100029DF878
:1016B80049108DF84A3042EB080262F3C7110A0656
:1016C8008DF84910CBB200F1C48003F07802182AD3
:1016D80040F0AE806FF3C6038DF8493000239DE0DB
:1016E8000CFB0202303A0B4643E7742A25D07A2ACB
:1016F800BBD19DF8492006210CE05A78682A9DF84C
:10170800492006D1012161F3C6028DF84920023330
:10171800ABE7022161F3C6028DF849200133A4E743
:101728005A786C2A9DF8492001D10421EBE703215E
:10173800F0E79DF849200521ECE79DF849200721AD
:10174800E8E7BDF8482022F4F04222F0020242F411
:10175800804242F00202ADF84820DFE76E3AD3B289
:1017680001229A4040F282431A429DF8493038D10A
:1017780012F0240F60D1D1072CD59DF84A2003F030
:101788007803A3F1400C032161F30202DCF10003AA
:101798008DF84A2043EB0C0340E0A2F15801C9B28E
:1017A800012000FA01F111F4624F7FF475AF40F6A1
:1017B800010319429DF8493019D111F4043F09D0A9
:1017C8009DF84A2060F3020203F07803402B8DF85D
:1017D8004A2083D19DF8483043F001038DF8483002
:1017E8007CE79DF84A20022161F30202ECE79DF8AC
:1017F8004A10022003F0780360F30201402B8DF8B1
:101808004A1002BF9DF8481041F001018DF84810B8
:10181800632A7FF463AF003B18BF01239DF848207B
:10182800C2F340010B4363F341028DF84820B9E647
:1018380013F0380FCED151E79DF84A20032113F059
:10184800780F61F302028DF84A2014BF01230023A8
:10185800E4E70123E2E79DF94820002AB4BF139A80
:101868004FF0FF32B0E699077FF5BDAE149F9DF8A3
:1018780049100023CDE913339DF84A3003F00702DD
:10188800042A07D18A0705D49DF94920002AACBF4C
:1018980006270D2703F00703012BC1F3C30133D13A
:1018A800CB1E042B04D8DFE803F021464621210093
:1018B800236801294FEAE372CDE910321CD19DF962
:1018C8004030DA17CDE9103204349DF848300793D8
:1018D8009B0750D0069B03993246504603F006F802
:1018E8000028C0F255830544069EC1E554F8043B20
:1018F800DA17CDE91032E8E70229E5D11AB243F345
:10190800C033CDE91023DFE7022B24D1CB1E042BF3
:1019180004D8DFE803F0181010181800012954F84B
:10192800043B4FF0000214D00229CDE91032CCD18B
:101938009BB21093C9E7073424F00704F4E80223A4
:10194800CDE91023C1E754F8043B10930023119309
:10195800BBE7DBB2CDE7042B08D1073424F007043A
:10196800D4E900230834CDE91023AEE7032BACD12A
:1019780054F8043BDDE79DF84BB0BBF1780FB3D8C2
:10198800BBF1570F49D8BBF1250F00F09180BBF18F
:10199800240FA9D9BBF1410F03D0ABF14502022AAC
:1019A800A2D8DDE91012002AC0F23681079B180779
:1019B80000F13581C3F300194FEA4919C2F30A50FF
:1019C800C2F31302002840F02D8151EA020614BF29
:1019D80001260026D20242EA5152C902BBF1460F43
:1019E80040EA010E42EAE07C08BF4FF0660B5EEA6F
:1019F8000C0CCDE90C1200F09981002E40F04481C6
:101A08000D9A42F00042A0F2FE380D920020DDE966
:101A18000C1206464FF0050C50E1ABF15802202A93
:101A28003FF662AF01A050F822F000BFBF1B0008CC
:101A3800F1180008F1180008F1180008F11800085A
:101A4800F1180008F1180008F1180008F11800084A
:101A5800AB190008F1180008431B0008571B0008C1
:101A6800AB190008AB190008AB190008F1180008F9
:101A7800571B0008F1180008F1180008F1180008B1
:101A8800F1180008F91B0008BF1B0008C51B000857
:101A9800F1180008F1180008BF1A0008F11800082A
:101AA800BF1B0008F1180008F1180008BF1B000848
:101AB80003995846E6E4002F109E3ADB3946304633
:101AC80003F0D3F83718002E3FF40EAF4FF000099B
:101AD8009DF84A3013F01002059200F04E82023051
:101AE80013F04003DDF84C80089318BF149BCDF821
:101AF8001C80404418BFC018049B002B40F3588238
:101B08009DF848201B1A04935307C2F3800B00F179
:101B18004F82500640F13F82B9F1000F07D0039978
:101B28004846D0470028C0F233820135D9463022D2
:101B380032E2304603F092F8C4E7109B8DF85C302F
:101B48004FF000090DF15D0717AE0120C0E7079BB4
:101B58001E0758BFC3F30019DDE9102354BF4FEA2D
:101B680049194FF02B09002B06DA524263EB430365
:101B7800CDE910234FF02D090DF175030093DDE930
:101B8800100117AB12AA02F06BFE0646002F0CDB01
:101B98009DF848200DF175039B1B6FF386129F4239
:101BA8008DF8482001D9FB1A1393002E3FF49CAE00
:101BB8000DF1750756E04FF00009DDE71098002891
:101BC80000F0D6810DF17503009312AA17AB00211E
:101BD80002F046FEBDF84A3003F0EF0343F4F04349
:101BE80043F010030646ADF84A304FF00009CDE740
:101BF800109B07293FF678AEDFE801F00C04060CCD
:101C080008080C0C1D706FE61D806DE6EA17C3E925
:101C1800005269E61D6067E64FF02D09CEE64FF0E9
:101C28002B09CBE640F2FF76B0422AD10A43ABF14A
:101C380041031ED11A2B35BF492369234E216E213A
:101C480034BF462266228DF85C309DF848308DF806
:101C58005D106FF386138DF85E208DF848300DF116
:101C68005F0717AEB81BB9F1000F3FF431AF013071
:101C78002EE7192B8BBF6E234E23612141211A4673
:101C8800E1E70026A6E6013849185241002AFADAA7
:101C9800CDE90C12B4E6490841EAC2715208B2F122
:101CA800333F404608F10108F5D20CFB02FEA1FBC8
:101CB8000C1200F102087244013E012018F1020FD3
:101CC800E9DB08B1CDE90C12B8F1000FDDE90C2110
:101CD8002FDCC8F1040008F11C08A0F1200CC24058
:101CE80021FA00F301FA08F80BF0DF0042EA0802D3
:101CF80021FA0CFC472842EA0C0208933AD1F31C5B
:101D080001DBB7422BDAABF10203002F5FFA83FB4A
:101D18007FDD9DF84800800607F1FF3779D43B1E28
:101D280018BF0123059307F101082DE04FF00008C3
:101D38006CE6023241F100010CA8CDE90C2102F059
:101D480060FDDDE90C2108F1FF38013692184941A0
:101D5800002908F1FF38F9DACDE90C21B4E79DF83C
:101D680048309906A7EB060751D43B1E18BF01233C
:101D7800059304E00023BBF1660F0593D3D117EB5D
:101D880006084FF0660B46D4B8F1100FA8BF4FF005
:101D9800100810200B904FF000610020CDE90E01D3
:101DA800DDE90E03B8F1000F38D10899121841EB9C
:101DB8000301B1F1805F3FD2CDE90C21079BBBF154
:101DC800660F03F0200240F0B280002E3FDC302185
:101DD8008DF85C10002A63D1002F40F3A8812E22D1
:101DE8008DF85D2086B17242BA42A8BF3A469DF886
:101DF8004A101392002AA7EB0207D4BF002201223F
:101E080062F345118DF84A100DF15E0837E00023A2
:101E1800AEE7002386E74FF00008BAE7400840EA3B
:101E2800C3705B08CDE90E030EA8099208F1FF38CC
:101E380002F0E7FC099AB3E7520842EAC1720CA81B
:101E48004908CDE90C21013602F0DBFCB6E70DF1BB
:101E58005C080B99002909DD0BA90CA8079202F070
:101E6800E8FC013E08F8010B079AF2D113969AB9DB
:101E7800002F40F35A812E2108F8011B0026002F5D
:101E880017DD0B9A002A14DD0BA90CA802F0D1FC6F
:101E9800013F08F8010BF2E72E2208F8012BEDE7C5
:101EA8002E228DF85D20002EAED0002F9BDC0DF188
:101EB8005E08059B002B4ED1149747460BF0DF02B6
:101EC800452A23D1002EBABF76422D232B23632E19
:101ED800C8BF64217B70D1BFBA1CB6FBF1F3FA1CF2
:101EE80003F13000C8BF01FB13664FF00A01C8BFF9
:101EF800B87087F800B0B6FBF1F3174603F130006D
:101F080001FB1363303307F8020B5370139B002B4C
:101F18002CDC149B002BD4BF002301239DF84A20FE
:101F280063F3861200238DF84A203B7099E60BA9CB
:101F38000CA8079202F07DFC079A8DF85C00302807
:101F480018BF06F1FF3612B9002F40F3F0802E2299
:101F58008DF85D2058E7474608F1FF3817F8012C3F
:101F6800302AF8D02E2A08BF4746A7E70123D5E72D
:101F7800704F81467E1F0520AAE51A0748BF013029
:101F8800AEE5104609920399D0470028099A05DA68
:101F98001FB0BDE8F08F2022DDF810B059460029A7
:101FA8000BF1FF3BEDDC049BCDF810B02B445D1A20
:101FB800B9F1000F05D003994846D0470028E7DB60
:101FC8000135089B002B75D09DF94930002B28DB83
:101FD800B3469BF80000A0F13003092BD9460BF15A
:101FE800010B3FD99DF84A30AE1B99064E4407D4E1
:101FF8004246002A08F1FF3839DC079B33449E1A11
:1020080099F800002E280AD10399D0470028BFDB91
:10201800B8F1000F06F101062FDC09F101094D4660
:1020280035E0B14699F800007028C84609F1010961
:1020380013D1AE1B149D46443544AB1B002B31DC39
:1020480003993B464246504602F050FC00289FDB6D
:102058003044049E0546064462E00399D0470028B0
:10206800E0DA95E70399D0470028B2DA90E70399B8
:102078003020D0470028BBDA8AE703993020D047C0
:1020880008F1FF38C2E70399D047002880DB287899
:10209800A0F13003092BA84605F10105F3D9A6EBF9
:1020A8000906C7E703993020D0470028FFF670AF2C
:1020B8000136C2E79DF84A30DA0601D41B0706D577
:1020C80003993020D0470028FFF662AF0135059B01
:1020D8003BB103999DF84B00D0470028FFF658AF55
:1020E8000135A84406E003993020D0470028FFF6C0
:1020F8004FAF0135A8EB0503002BF4DC03993B46F1
:102108003246504602F0F2FB0028FFF641AF284461
:102118009FE703992020D0470028FFF639AF013503
:10212800731B002BF5DCFFF7DFBB1646C1E60DF18C
:102138005D08BEE69E7000080C4B1A6842F40072F7
:102148001A601A6842F480621A604FF01002EFF3C6
:10215800118382F31288BFF36F8F83F31188BFF363
:102168006F8F034B034A1A6000207047003C0240FF
:10217800540000200024F400014910220A6070472E
:1021880010ED00E072B6404080F31188BFF36F8F06
:10219800BFF34F8F30BF62B6BFF36F8F704700BF7A
:1021A80040B2002807DB044A4109012300F01F0060
:1021B800834042F82130704700E100E040B2002837
:1021C800A8BF00F1604001F10101B8BF064B4FEA1A
:1021D8000111ACBF00F5614000F00F00C9B2B4BFF7
:1021E800195480F80013704714ED00E030BFFFF772
:1021F800FDBF00BF0F4A08B50F4B22F07F029A605F
:10220800BFF34F8FBFF36F8FD3F8882022F470028B
:10221800C3F88820EFF3148323F0040383F31488AE
:10222800BFF36F8F01F072FC02F052F900F014FA5C
:1022380001F0B0FC0000000800ED00E0094A0A497E
:10224800936809689967094958674B6843F0805350
:102258004B60002383F31188BFF36F8F9368986FE7
:10226800704700BF04090020946D000800ED00E0ED
:1022780012498A684FF030001044EFF3098C80E867
:10228800F01F102080F31288BFF36F8F0C4F4FF0B0
:1022980000664A698A603E60506F0023536780F386
:1022A800118804B5104600F01BFABDE8044002F19D
:1022B800300090E8F01F8CF309887047040900206B
:1022C80004ED00E01EF0040F0CBFEFF30880EFF3FD
:1022D8000980816911F8021C0229FFD001B502F0BA
:1022E800AEFC01BD42F8203C009B42F81C3C0A4968
:1022F800019B42F8183C029B42F8143C21F0010172
:102308004FF0807342F8043C42F8081C0023203A3E
:1023180002654367704700BFF7470008094A03464C
:10232800906870B113F1160F406E05D0A0F140020D
:102338009A4205D8834203D2814228BF00207047C1
:10234800002070470409002008B5094B98600D4625
:10235800144600F0C5F9204685F30988002163B6C4
:1023680081F31188BFF36F8F0022002302F03FFA38
:102378000409002001B5EFF30580A0F110004FEA31
:10238800C0000449014409C99847BDE80140024911
:10239800084700009C660008A5230008044B9968BC
:1023A8005869884203D003494FF080520A60704749
:1023B8000409002004ED00E070B5264B15469A6A22
:1023C80012F0100F9A6A14BF1124102412F0080F8B
:1023D8009A6A18BF1224920706460AD5586B9A6A59
:1023E800140634D519B19A6A22F080029A6213242D
:1023F80001E06FF01500174B9A6A12F0010F9A6A04
:1024080018BF142412F0200F9A6A18BF1524D20698
:1024180002D49B6A9B070AD50E4B5B68190506D543
:102428003146FFF77BFF10B180F309880224094B7E
:102438009A6A920642BF5A6A22F400525A629A6A0B
:1024480042F0FF029A6200232B70204670BD6FF0A5
:102458001500CCE700ED00E0134B9A6A12F0007FFC
:102468009A6A14BF1E201D2012F0807F9A6A18BF36
:102478001F2012F4002F9A6A18BF212012F4802F0F
:102488009A6A18BF222012F4003F9A6A18BF2320C4
:1024980012F4803F9A6A6FEA02426FEA12429A6225
:1024A80018BF2420704700BF00ED00E010B5194B9D
:1024B8000246986A9C6A10F4805F14BF17201620A1
:1024C80014F4006F9C6A18BF1820A40509D5986BEE
:1024D800986A000404D51AB19A6A22F400429A62F2
:1024E80019200C4B9A6A12F4806F9A6A18BF1A2046
:1024F800D2050CD49B6A13F4005F18BF1C20054A50
:10250800936A43F47F43936200230B7010BD1B2032
:10251800F5E700BF00ED00E070B5454B5B688AB099
:102528000546C3F30803002686F31188BFF36F8FAF
:1025380002F07F40B0F17F4F11D102F00C00082863
:102548000DD010074CBF0D4601260022033B8DF825
:102558000720032B05D8DFE803F01E5D615A3546D6
:10256800F3E700249DF807309BB92022294602A8EA
:1025780002F090FB099B002E54D0C3F3080222B945
:102588006FEA53236FEA4323099302A9204602F016
:1025980054FB0AB070BD264BDA6A9107E1D4DA6AB7
:1025A800002ADEDBDA6A5200DBD55A69A96942F4EF
:1025B80080725A61BFF34F8FBFF36F8F5A6931F83A
:1025C800021C22F480725A61BFF34F8FBFF36F8FE2
:1025D8004DF6027291420AD09A6AD2B24AB10DF10E
:1025E800070201212846FFF7E7FE0446BAE72C68F0
:1025F800B8E79A6A12F47F4F05D00DF10701012060
:10260800FFF754FFF1E79B6AB3F5803FA9D3FFF7C3
:1026180023FFEAE70DF107020021E3E70DF10701C7
:102628000020EDE723F4FF7323F00103ACE700BFBC
:1026380000ED00E0024A536943F01003536170470C
:1026480000ED00E0EFF30880EFF3098101B5724671
:10265800FFF762FF01BD00BF044800231021C21824
:102668000133552B82F80013F9D1704700E100E0DF
:10267800102080F3118808484FF40461401880F353
:102688000988EFF314800221084380F31488BFF30C
:102698006F8FFFF7AFFD000080090020084B9B6893
:1026A80083420BD1EFF3058343B1064B5A6842F0DE
:1026B80080525A605A6A22F400425A6201F0A8BE57
:1026C8000409002000ED00E0024B034A0348012101
:1026D80000F070B80080012000000020786A00082F
:1026E800426E054B403A1A60044A4021C3E9011280
:1026F8001846012100F068B86407002000000B1597
:10270800F0B5204E00258D4239DA446874B353B1D0
:1027180004F1FF3C14EA0C0F2FD11F2C2DD90768A8
:102728001CEA070F29D1202C0768D0F808C05FFAE7
:1027380082FE1ED9B4F1004F1DD8013CB4FA84F4CE
:10274800C4F11F046400BEF1070F4CEA040C14D84E
:1027580027F01F04144344F01004C6F89820C6F864
:102768009C404CF00104C6F8A040013201350C3001
:10277800C9E70824E7E73E24E5E76FF015021046AD
:10278800F0BD00BF00ED00E0044B0522C3F8942023
:10279800BFF34F8FBFF36F8F704700BF00ED00E0AE
:1027A800BFF35F8F024B0022C3F89420704700BF2D
:1027B80000ED00E010B5034C01232278FFF7A0FFDD
:1027C800207010BD4609002008B5094A0023127878
:1027D800FFF796FF10F1160F02D0064A072800DD12
:1027E80008BDC2F89800C2F8A0300130F6E700BF73
:1027F8004609002000ED00E014490868082810B5D3
:1028080021D8FFF7CDFF124C49680022904201F110
:102818000C0105D10F4B1870FFF7B6FF002010BD53
:10282800C4F8982051F80C3C23F01F03134343F0DD
:102838001003C4F89C3051F8043C43F00103C4F879
:10284800A0300132E2E74FF0FF30E8E7846A000881
:1028580000ED00E046090020014B1860704700BFFA
:10286800040000200239012902D8034B1B681847CD
:102878004FF0FF30704700BF040000200FB41FB5B1
:1028880006AB002153F8042B05480091022103935D
:10289800FEF7E6FD05B05DF804EB04B0704700BF35
:1028A800CB4C00082DE9F0410E4E0F4F0546002491
:1028B8004FF001082B7818191F280DDC726908FAE7
:1028C80000F333EA020207D1736157F830301BB1C5
:1028D80007EBC002516898476B780134A342E9DAE4
:1028E800BDE8F081003C014070070020044B18440B
:1028F80000230133994200F8012BFADC704700BF2E
:102908006000002010B4064B064902460C681856B1
:102918000123934023430B6010BCFFF741BC00BF69
:1029280060000020003C01401F2806DC034901220A
:102938000B68824023EA02030B607047003C0140A9
:1029480003292AD8DFE801F0020E141F134B0122D5
:102958009968824021EA02019960D96821EA020255
:10296800DA6070470D4B0122996882401143F3E702
:102978000A4B0122D96882401143D960996821EA3B
:1029880002029A607047012303FA00F0034B9A6829
:1029980002439A60DA681043D8607047003C0140EF
:1029A80010B5074B044653F8300028B943F83410E3
:1029B80003EBC4035A6010BD6FF00F00FBE700BFC4
:1029C80070070020034B002243F8302003EBC003BC
:1029D8005A6070477007002010B5234B18680B68C1
:1029E800442B144628D82F2B05D8013B052B0DD98D
:1029F8006FF085001FE0A3F1300101228A401B49D6
:102A08000A4216D1402BF3D1400812E0052BEFD82B
:102A180001A252F823F000BF472A0008572A0008ED
:102A2800F9290008392A00086B2A00083B2A0008FF
:102A380000202060002010BDA82BFAD0D8E700F0B5
:102A4800A3F84FF4A873C00858438008F1E700F0D2
:102A58009BF84FF4A873C00858430723B0FBF3F062
:102A6800E7E74FF4FA40E4E75400002011011000B2
:102A780070B5404C404E00F09FF800F08FFFA368FF
:102A88003E4AC3F30313D35C20FA03F5B54202D8D8
:102A98003B4800F0B1FF236843F480232360236898
:102AA80043F480332360334B1A689203FCD55A6F82
:102AB80042F001025A675A6F9407FCD59A6802F0EF
:102AC8000C02082A17D19A6822F0F0029A601A6854
:102AD800900707D41A6842F001021A60254A136861
:102AE8009907FCD5234B9A6822F003029A609A68EA
:102AF80012F00C0FFBD11F4C236823F08073236066
:102B0800636823F4403343F480336360636823F0DD
:102B1800706343F0E063636000F03AF8236843F0C1
:102B28008073236023689B01FCD5A36823F0F0031E
:102B3800A360A36823F0030343F00203A3600D4CD2
:102B4800A36803F00C03082BFAD1B54202D90C484C
:102B580000F052FF0B4B0A4A1A60A36823F4E053B3
:102B680043F48053A360A36823F46043A360002068
:102B780070BD00BF00380240FFBC01054572000867
:102B880000BD0105540000200048704700127A007B
:102B9800064A074953681940064B0B43536053686C
:102BA80023F4403343F480335360704700380240C5
:102BB8000080BFFF08544000064B1A6C42F0805258
:102BC8001A641B6C82B003F080530193019B02B01E
:102BD800704700BF0038024008B5074803F00CFBF7
:102BE80038B10648FFF738FE0448FEF725FC0020F8
:102BF80008BD6FF01200FBE7DC650008092C00082F
:102C08000A2838B5074D044604D1AB680D215B6826
:102C180028469847AB6803485B68E1B29847204666
:102C280038BD00BFDC65000838B503690446586044
:102C3800084D284603F0E0FA40B16168AB680C31F2
:102C48001B682846984700EAE07038BD6FF012000C
:102C5800FBE700BFD4640008F7B51746B7F5001FB7
:102C6800466802690C461D4624D101F0030204326D
:102C780092000F23934043EA9103DAB233490232B8
:102C880051F82220190C02EA134391FAA1F2B2FA80
:102C980082F2D340B2689A4209D12046FFF744FE37
:102CA8002046FFF78FFE00212046FFF749FE00204F
:102CB80003B0F0BDB7F5800F41D025492046FFF796
:102CC8006FFE00283ED1234AB66892E803006B469F
:102CD80083E8030020488268194612689047C0B903
:102CE80004F0030304339B000F229A4042EA940243
:102CF800D3B29B0003F1804303F59C33110C986811
:102D080020EA124091FAA1F2B2FA82F29640064302
:102D18009E60B5F1806F0ED0B5F1C06F0DD005F192
:102D28007E435942594149002046FFF709FE204693
:102D3800FFF7E8FDBBE70121F6E70321F4E76FF0B1
:102D48008500B5E76FF00F00B2E700BF003801401B
:102D5800F54F0008706A0008D464000810B50269CD
:102D68004368126ADB68C2F34202012A04D0022ACD
:102D780021D06FF0150010BD58681F4AB1FBF2F260
:102D880020F03F0010435860186A013220F03F00DD
:102D980002431A62194AB1FBF2F140F6FC72114281
:102DA80008BF0421DA6922F44F4222F0FF020A43E5
:102DB800DA610020DFE758680F4AB1FBF2F220F031
:102DC8003F0010435860186A4FF49674624320F02D
:102DD8003F004FF47A74B2FBF4F2013202431A62F4
:102DE800074A914289BF013248F20101B1FBF2F171
:102DF80041F40041D6E700BF40420F00400D0300F8
:102E08007F4F1200F7B50546436804691548DE6828
:102E18000F4659688368DB680022019223B96FF076
:102E28000405284603B0F0BD01AA98470028F6DB40
:102E3800276210344FF0FF324FF0FF33204600F086
:102E4800DFFF336823F001033360336823F01A038C
:102E5800336001992846FFF781FF0546204600F0B8
:102E6800AFFFDEE7D4640008F7B504464668056995
:102E78004FF0FF320021284603F000FA336820465D
:102E880098470122114605F1100003F0F7F9234D88
:102E9800284603F0B1F900283CD0676801AA786990
:102EA800002102F0BDFB00280CDB019B00221979F0
:102EB800186800F03DF8002804DBAB6879681B68E7
:102EC800284698473169164B99421DD010D8154BA2
:102ED80099421BD0144BCB1A59425941890041F0F1
:102EE80010012046FFF78EFF00EAE07003B0F0BD46
:102EF8000E4B99420CD003F5C31303F52063994296
:102F08000CBF0A210021EAE70621E8E70221E6E7EB
:102F18000821E4E76FF01200E8E700BFD464000876
:102F280040420F00A0860100801A060040E13300ED
:102F38002DE9F0471E4F044600EBC1060025B442B8
:102F480001D1002014E02068C30600F01F0911D445
:102F5800656845F02005C0F3471AC0F343200A28E6
:102F680023D857F82080B8F1000F0DD16FF0120068
:102F7800BDE8F087B9F1100F04D0B9F1110FEAD10B
:102F88006568E8E73025E6E7404603F035F90028AC
:102F9800ECD04B462A460AF00F01404602F03DF8B5
:102FA800002804F10804CADAE2E76FF01500DFE749
:102FB800C06B000830B50D29006920D1C488B0F96C
:102FC8000E500389B0F902101B1B491B4B43B0F983
:102FD8001010491B93FBF1F32344002B1946B8BF8B
:102FE800D91D584200F0070003F0070358BF4342B9
:102FF8001248C9104343C2E90013002030BD10290C
:1030080019D10479B0F90A504379B0F900101B1BA3
:10301800491B4B43B0F90C100948491B93FBF1F3CA
:10302800234403EBD371002B03F001034FEA610142
:10303800B8BF5B42DEE76FF08500DFE748E80100D4
:1030480020A1070030B5456887B004460DF1070197
:10305800284601F09FFC002805DB9DF80730BC2BB3
:1030680003D06FF0150007B030BD2C49084601F0B9
:1030780005FE034660B12949294801F0FFFD0028F3
:1030880049D02649274801F0F9FD0028E9D1022353
:10309800254A02EBC3032846197901F04DFC0028A4
:1030A800E1DB0121284601F05EFC0028DBDB012181
:1030B800284601F074FC0028D5DB00211E2001F011
:1030C80089F960682569102302AAB02101F028FC5B
:1030D8000028C8DBBDF80830AB809DF80D309DF89E
:1030E8000A20190201F440710A43EA809B019DF805
:1030F8000B2003F4407313432B81BDF80E306B8112
:10310800BDF81230AB81BDF81430EB81BDF8163034
:103118002B820020A7E70123BAE700BFB07100089F
:103128009A7100089C710008286C000870B5032982
:1031380004691CD80F4B58560F4B5E560F49B042C6
:1031480002F1080201DD002070BD031D04EB4303FA
:103158002569B3F901301B116B4393FBF1F501FBB2
:10316800153342F8085C42F8043C0130E7E76FF099
:103178008500E9E7B6710008B271000840420F0007
:103188007FB54668056933680446984700282EDBF2
:103198006B680DF107029B680F21204698470028AD
:1031A80025DB9DF80730332B3FD1327BD3070BD576
:1031B8001F4B44F6161142F28B40C3E900011D492A
:1031C80049F22D26C3E90261930712D40622002191
:1031D80002A801F06AFD07238DF808306B6802AA7F
:1031E8005E68202106232046B04700280BDA04B089
:1031F80070BD6B681E6980231A461E212046B047A1
:103208000028E3DAF3E70A4B1B682B616B6800229E
:10321800DB682321204698470028E8DB6B684722B3
:10322800DB68202120469847E1E76FF01500DEE7CC
:103238002400002094B6010010B54368046958685A
:1032480002F0DAFF18B1034B6360002010BD6FF085
:103258001200FBE7646C00080B29F0B504D80729B5
:103268001BD86FF08500F0BD0C29FAD10169B1F9BE
:103278000A30002BB8BF0733DB1019331BB21360B9
:10328800B1F90A30594201F0070103F0070358BFAA
:103298004B4212494B43536010E00B2918BF0839C1
:1032A80000690F4D19BFC9B20C4602240021043031
:1032B80040F2DC57A14202F1080201DD0020D2E70A
:1032C80030F8113013FB07F393FBF5F605FB1633C3
:1032D80042F8086C42F8043C0131EBE748E8010089
:1032E80040420F0030B50E29036911D11968114CFD
:1032F8000B130A25C1F30B0193FBF5F005FB103303
:103308006143634303EB1133C2E90003002030BD7E
:103318000D290CD1B3F90430642493FBF4F104FBB8
:10332800113308B242F2107113FB01F3ECE76FF0AE
:103338008500ECE7A086010070B505692A6A0B01D3
:10334800D6680C4603F0F003F0221021B04700289D
:1033580009DB0A2C96BF054B41F6042333F81430D9
:10336800AB84002070BD6FF00400FBE7D86D000847
:10337800F7B543681B680446984700280BDB2569A6
:103388002B6ADE6880231A4612212046B04700289F
:1033980003DA6FF0040003B0F0BD48F6B80001F09E
:1033A800F1F92B6A0DF107029B680F212046984717
:1033B8000028EEDB9DF807306A2BEAD10021204671
:1033C80002F03CFC0028E4DB0026214BEB60AE84D5
:1033D80031462046FFF7B0FFB042DADB0421204631
:1033E80002F03FFCB042D4DB1A4BEB612E8531462C
:1033F800204602F04BFCB042CBDB2B6A0722DF6889
:103408000A2133462046B847B042C2DB2B6A46221F
:10341800DE68122144232046B0470028B9DB2B6A16
:10342800DE6810231A4615212046B0470028B0DB75
:103438002B6ADD6880231A4616212046A8470028F3
:10344800A7DB204600F018F800EAE070A3E700BF09
:1034580023DB793D00008C4008B5026943680549C3
:103468001162586802F0C8FE00280CBF6FF0120005
:10347800002008BDE86C0008F0B54468066989B00A
:103488000546E06802F0B8FE002859D0638AE06873
:10349800217C43F48032D0F810C0D0F808E013F053
:1034A800010F4FF00107DCF8003007FA01F714BFED
:1034B8003B43BB43CCF80030DEF800309847237C10
:1034C800214A012707FA03F3C6E90D23E068836858
:1034D800DB6906F130011BB96FF0040009B0F0BDDB
:1034E8003A4698470028F7DB336ADC6803231A4614
:1034F8000D212846A0470028EEDBF5624FF0FF3289
:10350800002106F5A86002F0B9FE00220023CDE9EB
:10351800062300246FF00503CDE903344FF48062DD
:103528000A4B009506F18001CDE9014406F5986043
:1035380000F0CEFB6868394602F0CFFC2046CDE7A4
:103548006FF01200CAE700BF1D5F0008395F00086E
:10355800F7B50769446806463948786002F04CFEBA
:1035680020B96FF01205284603B0F0BD786861688D
:1035780083681B68984705460028F4D1014601AACC
:10358800A06902F04DF8002801DA0546EBE7019B37
:103598002A4619791868FFF7CBFC0028F5DB226862
:1035A800D36823F40053D360B86802F025FE0028DE
:1035B800D7D0D7E902018368DB6803B1984721684F
:1035C80001F10C0353E8003F43F00C0301F10C0038
:1035D80040E80032002AF3D12369022B2AD0012BBC
:1035E80012BF00204FF480504FF4C0622168CB68AE
:1035F800104323F4B0530343CB600B6923F44053C7
:103608000B61237B2BB173681A68536943F44073C9
:1036180053613968304602F07EFD237D23B122686C
:10362800536943F0080353612268D36843F4005395
:10363800D36098E74FF480504FF48062D6E700BF1C
:10364800D46400082DE9F0410B7945680669012B1F
:103658000C467DD09A1E57425741BF02627994F8B2
:103668000680022A96BF4C494FF4005C31F812C01C
:10367800B8F1040F7BD094F807E0002B6BD1BEF1B2
:10368800010F22F002027FD0002A70D0B8F1020F99
:103698006DD91946D5F80080BEF1000F0DD03F4A0C
:1036A800904507D0A2F54C42904503D002F5504210
:1036B80090455CD1BEF1010F59D1D8F80C2022F405
:1036C8000052C8F80C204268D2F800E0DEF80C205E
:1036D80002F4C06297421FBFDEF80C2022F4C062D9
:1036E8003A43CEF80C20426817683A6902F440520F
:1036F80094451FBF3A6922F4405242EA0C023A61EB
:1037080042681768FA6802F480529A421FBFFA6842
:1037180022F480521343FB6043681A68536903F428
:10372800407399421FBF536923F440730B4353619D
:1037380021683368994203D002F0EDFC23683360B6
:103748002A68D36843F40053D3600020BDE8F081B1
:103758004FF4C06782E7033BBEF1010FDBB209D12A
:10376800012B04D94FF4407112F0FD0F06D16FF010
:103778008500EBE7012BFAD90021F5E7B8F1020F34
:10378800F5D94FF4805385E7002AF0D0B8F1020F3D
:10379800EDD94FF440717DE7EE6D0008001001404F
:1037A80010B54FF0E0239A6919699869094B11F42B
:1037B800803F094901D1824206D21A680C68224426
:1037C8001A604FF0E02212691B680A681344181A3D
:1037D80010BD00BFF408002000090020094B10228A
:1037E80083F82320084B42F2CF021A60074B0020CF
:1037F80018604FF0E0235A6198611A6942F0070295
:103808001A61704700ED00E000090020F40800206C
:1038180008B5FFF7C5FF0C4B0C4A18681168084437
:10382800106000221A600A4A136842F2D001C01AD6
:10383800B0FBF1F001FB0033136000F01FFFBDE89F
:103848000840FEF7ABBD00BFF4080020FC080020CC
:10385800F80800202DE9F041314E002954D0421CCF
:103868000AD14FF0E022136923F0010313614FF0EE
:103878007F433360BDE8F081356801284ADD40F2B6
:10388800CC78404501DC00F1FF384FF01003EFF32E
:10389800118483F31288BFF36F8FFFF781FF214FE5
:1038A8004FF0E0230021D3F818C03B68C2181E4B24
:1038B80019601E4B1B68D11A2FD442F2D00000FBAE
:1038C800081101F503519B1A0F31B1FBF0F100FB10
:1038D8000133B3F5806F20D915498B4228BF0B46B9
:1038E8004FF0E02133608869013B4B6100238B6115
:1038F8008445ACEB000338BF5B191A443A6084F383
:103908001188BFF36F8FB5E7431C3568B5D140F216
:10391800CC70B8E74FF00008B7E74FF48063DFE7F3
:1039280000090020FC080020F4080020F808002006
:10393800C0D5FF0010B54FF01003EFF3118483F3E7
:103948001288BFF36F8FFFF72BFF074B074A1B68DF
:1039580012689B1A034484F31188BFF36F8F42F2F5
:10396800D000B3FBF0F010BDFC080020F8080020E0
:1039780010B54FF01003EFF3118483F31288BFF3EF
:103988006F8FFFF70DFF044B1B68184484F31188F1
:10399800BFF36F8F10BD00BFFC08002008B51349A6
:1039A8008B6803F00C03042B1CD0082B1CD14A682D
:1039B8004B68496813F4800314BF0D480D48C1F3E0
:1039C800881118BF002302F03F02A1FB0001FDF798
:1039D80075F8064B5B68C3F3014301335B00B0FB2A
:1039E800F3F008BD0248FCE70248FAE70038024055
:1039F80000127A000024F400002841D0214B1A68F4
:103A08001A6802F44042B2F5004F25D11E4A90428E
:103A18001DD81E4A1B68904201D8002005E003F417
:103A280040430120B3F5804F24D0194A136823F08E
:103A3800070303431360136803F0070383421CBFA3
:103A4800136803F00703C01A18BF012070471B68EA
:103A5800022003F44043E5E71B6803F44043B3F551
:103A6800804FDAD1084B984208D8084B98424FF05B
:103A78000000DAD9012838BF0120D6E70220D4E7B0
:103A880001207047007000400087930380C3C9017C
:103A9800003C02400F4B70B553F82040013053F8FA
:103AA8002060A64200D870BDD4E900352846984762
:103AB8006DB138B10028B8BF4042EB68FF28A8BFF5
:103AC800FF201870EA68537843F0010353700834F4
:103AD800E7E700BF986D000808B50A4B01220320EC
:103AE8001A70FFF7D7FF00F065FE0420FFF7D2FF3A
:103AF80000F01AF9FDF738FB034A137B23F00103A2
:103B0800137308BD47090020C006002008B5034804
:103B1800034A0021121A02F0A1FB08BDC0000020D0
:103B28004C09002070B5002386B00122CDE904239A
:103B3800134E144D01930F22CDE90232124914237A
:103B480003FB005506EBC01604464FF4C07000FB9B
:103B580004110E4B00954FF4A072304600F086F821
:103B6800737B0B4AEE6023F0040373734FF4046312
:103B780004FB033313442C746B6006B070BD00BFA4
:103B88004006002004090020C01100206D620008D2
:103B98008009002080B50020A6B0FFF77BFF2C4BE2
:103BA80083F308882B4D2C4E6B692C4F43F400731C
:103BB8006B610024F02385F82230EC772C766C7644
:103BC800AC7685F820406B6A43F4E0236B62FEF71D
:103BD80031FDFEF7D1FA4FF0FF33AB62EB62FEF72F
:103BE8000BFEFEF771FD40F20113ADF8243006AB71
:103BF800B360CDE91F44229402F0FDFA0120FFF7DB
:103C080049FF0220164DFFF745FF00F055FB154B05
:103C180075610593012314490094CDE903434FF4DA
:103C280080623B46CDE90144284600F01FF86A7BD4
:103C3800064622F0040228466A7302F065FB204615
:103C4800FFF770FF3A4631462846FEF77DFB00BF76
:103C5800C011002000ED00E004090020E13A00084E
:103C6800C006002055720008401300202DE9FF41CE
:103C78000E9E0673042646730D9E867300F1580542
:103C88000F46D61DC0E916550C9A002526F00706E2
:103C98004037C0E90655C0E919768560C573C56621
:103CA80006F1400802920B9A019288440A9A0092FF
:103CB80042460446FEF716FB044B65659B6803B154
:103CC8001B6F2367404604B0BDE8F081040900205B
:103CD800F0B587B000250595109D04950F9D0395B7
:103CE8000E9D0295DDE912760D9D01950C9D0095BE
:103CF8000446FFF7BBFFB6F1FF3F08BFB7F1FF3F30
:103D080005D056EA070305D1204600F055FA2046AB
:103D180007B0F0BD03493A46334604F1180000F0F5
:103D280037FCF4E775630008F0B5224C224D87B0E4
:103D38002646AE4204F12C040BD300F08DFA1D4C3C
:103D48001E4F0A26AC4220D307B0BDE8F04000F071
:103D580097BA54F8043C059354F80C3C049354F86F
:103D6800103C039354F8143C029354F8183C019304
:103D780054F81C3C009354E9092354E90B01FFF75C
:103D880075FF54F82C3C5E65D2E7626A531C09D073
:103D980022EAE27282FB062352EA0301206803D179
:103DA80000F00AFA2C34CDE73946183000F0F0FB61
:103DB800F8E700BF44690008446900087563000813
:103DC80038B504464FF01003EFF3118583F31288DA
:103DD800BFF36F8F02F0CEFA48B10022826702F07B
:103DE80093FA29460548BDE8384000F0D3B9D4E92C
:103DF80002329A4218BF0133A360F2E74809002053
:103E080013B54FF01004EFF3118184F31288BFF358
:103E18006F8F846844B1013C846081F31188BFF3DB
:103E28006F8F002002B010BD52EA030406D181F35F
:103E38001188BFF36F8F6FF00F00F3E7CDE9002310
:103E48000246024800F088F9ECE700BF4809002064
:103E580070B504464FF01003EFF3118583F3128811
:103E6800BFF36F8F6FF00A06204602F083FA18B18D
:103E7800866702F049FAF7E7A06029460248BDE8DC
:103E8800704000F087B900BF48090020C3897F2B24
:103E980012D80A4B1B6863B1094B90F90E201B68B6
:103EA8009A4209DB437BDB0606D1064BC31A18BFCF
:103EB800012303F0010070470023FAE72C090020D2
:103EC8002809002040060020044BC01A044BC010EB
:103ED8005843044B01221A54704700BF4007002082
:103EE800ABAAAAAA4809002070B50E4B0E4C1E7C3E
:103EF80006EB460304EBC3040546204602F06CFAC1
:103F08000A4B00229A552846FFF7C0FF48B1084BD4
:103F180008491A68013A2046D317BDE8704000F0F6
:103F280037BB70BD04090020400700204809002065
:103F38002C090020D13E000838B50D4D2B4653F80A
:103F4800184F9C4200D004B9EC68AB6838B95A7B6A
:103F5800D20604D1A26912B9DA897F2A05D89C420F
:103F680002D02046FFF7C0FF23466B6138BD00BF73
:103F78000409002070B590F90D20437B002A014602
:103F880004DA03F07F03437302F084F94B7B154A8C
:103F980063F07F0310464B7350F8183FD46983428F
:103FA80008BF002323B9C1E900042160D1610CE0F6
:103FB80091F90E5093F90E60B5420ED0AE420CDD69
:103FC8005868C1E90030016059609068431A584246
:103FD800BDE870405841FFF7AFBF9C42E3D01B6873
:103FE800E0E700BF0409002070B490F90D30427B6F
:103FF800002B29DBD30627D183692BBB134962F039
:104008007F0242730A4652F8184F944218BF23465B
:10401800CC6923B9C0E900242060C8610CE090F99C
:104028000E5093F90E60B5420AD0AE4208DD5A68C8
:10403800C0E900321060586070BC0020FFF77CBFF8
:10404800A342E7D01B68E4E770BC7047040900206E
:1040580008B590F90D20437B002A014604DA03F0E5
:104068007F03437302F016F9044B9868431A5842C9
:104078005841BDE80840FFF75FBF00BF04090020B2
:1040880070B515461C46064602F016F9B4F1FF3F16
:1040980008BFB5F1FF3F08D02A46234606F11800AD
:1040A8000249BDE8704000F073BA70BD756300083E
:1040B80010B54FF01003EFF3118483F31288BFF3A8
:1040C8006F8F0A23002800FB03F302DD022BB8BF21
:1040D8000223064A1360064B1960064B9868FFF7DF
:1040E80003FF84F31188BFF36F8F10BD2C090020E4
:1040F800280900200409002038B54FF01003EFF319
:10410800118583F31288BFF36F8F104B104A9C6898
:104118001068A04206D1FFF7E7FE85F31188BFF3C8
:104128006F8F38BD00211B7C11600A4AD35C002BBD
:10413800F3D02046FFF7AAFE0028EED0637BDB060B
:1041480002D12046FFF716FF2046E4E704090020C5
:10415800240900204809002070B50C480C4D8668D9
:104168002E600C461146DDE904234FF01006EFF3EC
:10417800118586F31288BFF36F8F8068FFF780FF81
:104188002046BDE87040FEF759B800BF040900207A
:104198002409002049B9EFF3058030B9054B5A6965
:1041A8009B689A4201D0FEF749B881F31188BFF3A2
:1041B8006F8F70470409002010B54FF01002EFF31D
:1041C800118482F31288BFF36F8F427B510704D4A6
:1041D80084F31188BFF36F8F10BD22F0040242737D
:1041E800FFF702FF21460248BDE81040FFF7D2BFA3
:1041F8004909002070B50446183002F0EDF84FF078
:104208001003EFF3118683F31288BFF36F8F94F9CD
:104218000D20637B002A05DA03F07F0363732046D1
:1042280002F038F80B4D637BA86843F01003637302
:10423800031B58425841FFF77FFE86F31188BFF3EE
:104248006F8FAB68A34203D1BDE8704002F0BAB8E3
:1042580070BD00BF040900204FF01003EFF3118177
:1042680083F31288BFF36F8F044B9A68D37B013BAB
:10427800D37381F31188BFF36F8F7047040900204F
:1042880010B54FF01003EFF3118483F31288BFF3D6
:104298006F8F084B9A68D37B0133D3730020FFF7E5
:1042A8004BFE84F31188BFF36F8FBDE8104002F016
:1042B80089B800BF04090020044B002103F118024B
:1042C800C3E906220846FFF7F3BE00BF0409002031
:1042D800F8B54FF01003EFF3118583F31288BFF39D
:1042E8006F8F19498868437B03F07F03437301F09C
:1042F800D1FF8B685A7B084662F07F025A7350F8E8
:10430800182FCC69824208BF002222B9C3E90004F1
:104318002360CB610CE093F90E6092F90E70BE42F7
:104328000ED0B7420CDD5168C3E900210B60536021
:104338000120FFF701FE2846BDE8F840FDF77EBFE3
:10434800A242E3D01268E0E70409002050EA010322
:104358002DE9F04105460E4603D1FFF7B9FF0020CD
:104368002CE0831C71F1FF332ADB02F04BF82C1888
:104378004FF01003EFF3118883F31288BFF36F8FA8
:10438800114F124BB8681860FFF762FEB868104901
:104398002A463346183000F0FBF8BA68537B43F0DE
:1043A800100353734046FDF749FF02F02BF8201A1B
:1043B80063EB0303012873F10003D0DBBDE8F08150
:1043C8006FF00104241AD3E704090020240900200F
:1043D80075630008B1F1FF3F08BFB0F1FF3F08B5B2
:1043E80006D1074B9868FFF705FF4FF0FF3008BD6F
:1043F800FFF7ACFF0A220023C117FCF75FFBF6E7C3
:1044080004090020014B9868704700BF0409002088
:104418002DE9F04104464FF01003EFF3118683F3C2
:104428001288BFF36F8F037BD9070BD586F31188EA
:10443800BFF36F8F404080F311884FF0040002DF14
:10444800BDE8F081437B1A0704D586F31188BFF3D2
:104458006F8FF5E723F0200242F00801D20920D13E
:104468004173A36813B1204601F01CFF04F1180042
:1044780001F0B2FF04F158074FF00008A56DBD42E6
:1044880000D0B5B90120FFF757FD104B9B68A34238
:10449800DBD1EFF30583002BD7D13046FDF7CEFEF5
:1044A800D3E703F05F0343F00803437301F0F2FE20
:1044B800D7E7284601F0F6FE05F1180001F08CFF59
:1044C800C5F878802846FFF78FFDD7E70409002054
:1044D80008B50648064A0749121A01F0C1FEBDE8A8
:1044E8000840054A0549064801F0BABE0000002008
:1044F80096000020A072000800000000A0720008CA
:1045080000000020034B1B680BB9FFF713BA00200B
:10451800704700BF3009002010B50E4B1C689C4244
:1045280004D1FFF7EFFF6FF0004010BDFFF7EAFF7F
:10453800002CF8D0D4E904321B1A62EBE072B3F114
:10454800004F72F10001EEDA002AACBF18460020D5
:10455800EBE700BF5800002030B570B10B4B5B682B
:1045680098420AD0036843B1D3E90421D0E904454D
:10457800121941EB0501C3E90421D0E900321360A7
:104588005A600023C0E9003330BD00BF5800002046
:10459800B3F1FF3F08BFB2F1FF3FF8B504461D462F
:1045A80016465CD081604FF01003EFF3118783F358
:1045B8001288BFF36F8F013275F1FF3324DA2D496A
:1045C800D1E900206FF001039B1A4FF0FF3262EB34
:1045D80000009E1B60EB0500012E70F1000301DA5C
:1045E80001260020C4E90460234ED6F800C075688F
:1045F800B44508BF4FF0000CBCF1000F0DD1C4E961
:1046080000652C6074601CE0FFF77CFF013645F103
:104618000005361845EBE070E4E7DCE90420D4E94E
:104628000431934271EB000E1ADAD21ADCF8043026
:1046380060EB0100CCE90420C4E900C31C60CCF89D
:1046480004403368B34206D09C4204D1FFF764FFAC
:104658000021FFF7FFF887F31188BFF36F8FF8BDCC
:104668009B1A61EB0001AC45C4E90431C7D0DCF802
:1046780000C0C1E758070020580000202DE9F84F76
:104688004FF01003EFF3118C83F31288BFF36F8F91
:10469800DFF8B0A0DFF8B0902C4FC9F80000DAF8C6
:1046A80000000024504508BF00200025D7E900215C
:1046B800D9F80030E04680B3D0E9046C4FEAE37ED5
:1046C800B3427EEB0C0B05DAF61A6CEB0E04C0E96C
:1046D800046422E0B21841EBE671C0E90445C7E979
:1046E8000021FFF739FF88F31188BFF36F8F8368C4
:1046F80098474FF01003EFF3118883F31288BFF344
:104708006F8FD9F80030DAF800009B1B5045C4467B
:10471800C9F80030CAD1D7E900219A1841EBE373F0
:104728000024C7E90023C9F80040FFF7F5FE214639
:10473800FFF790F888F31188BFF36F8FBDE8F84F43
:10474800FFF7DABC58000020300900205807002085
:1047580010B54FF01003EFF3118483F31288BFF301
:104768006F8FFFF7CFFE064A0346D2E900011818FB
:1047780041EBE37184F31188BFF36F8F10BD00BF65
:104788005807002038B5044678B1FFF7F1F8054618
:104798000648074AA4FB00010023FCF78FF90446EA
:1047A800FFF7E6F8431BA342FAD338BD00BD010565
:1047B80040420F00014800F00DB800BF5D720008CC
:1047C800704783683921DB68184783681B69184775
:1047D800002070470FB407B504A951F8040B0191E4
:1047E800FCF730FE03B05DF804EB04B070470446F4
:1047F80008B5084611461A46A047FFF703FEFDF71D
:104808004DFFD0E9002130B54FF03333A2FB03242C
:10481800D51843EB0405A1FB0313521844EB03041A
:10482800521944F10002891843F10003C0E900134A
:1048380030BD10B50A68002A03460FDD013A0A6048
:104848001A6844680A20A2FB001200FB0422100F19
:1048580022F07042C3E90012303010BD3020FCE76E
:104868002DE9F84F9A46D3786F2B80460F461546A8
:10487800A3F1410B29D024D8582B0CBF10260A26A7
:10488800DDF828903246002340463946FCF716F9F1
:10489800092AD4B21ED83034B045E4B277F1000703
:1048A80009F8014D01D3D14511D82B789B0605D5C0
:1048B800082E15D1AB7843F00803AB704846BDE825
:1048C800F88F03F0F703702BD7E70826D8E7804660
:1048D8000F46D7E7BBF1190F94BF37345734DBE7DE
:1048E800102EEBD1AB7843F01003E6E72DE9F04149
:1048F8000746884615461E461446B44205D30EB1EF
:10490800601B08E02378002BFAD014F8010B41460D
:10491800B8470028F1DABDE8F081704700207047F9
:1049280010B4D0E90140A44610BC604710B4046834
:104938008068A44610BC604737B501230D4601AA1C
:1049480020210446FFF7ECFF58B99DF8043065F3C1
:1049580001038DF8043001AA012320212046FFF726
:10496800E5FF03B030BD37B501230D4601AA20216C
:104978000446FFF7D5FF58B99DF8043065F3820364
:104988008DF8043001AA012320212046FFF7CEFF2D
:1049980003B030BD0A4601230F21FFF7C1BF37B569
:1049A80001230D4601AA20210446FFF7B9FF58B993
:1049B8009DF8043065F3C7138DF8043001AA01236C
:1049C80020212046FFF7B2FF03B030BD10B4D0E974
:1049D8000140A44610BC604710B404688068A4462F
:1049E80010BC604707B50B88ADF800304B88ADF8B0
:1049F80002308B88ADF804306A4606234521FFF75C
:104A0800EBFF03B05DF804FB37B501230D4601AA9F
:104A180060210446FFF7DAFF58B99DF8043065F3C2
:104A280001038DF8043001AA012360212046FFF715
:104A3800D3FF03B030BD37B501230D4601AA60216D
:104A48000446FFF7C3FF58B99DF8043065F38303A4
:104A58008DF8043001AA012360212046FFF7BCFF2E
:104A680003B030BD37B501230D4601AA60210446C5
:104A7800FFF7ACFF58B99DF8043065F3C7138DF8FC
:104A8800043001AA012360212046FFF7A5FF03B0E7
:104A980030BD37B501230D4601AA61210446FFF751
:104AA80095FF58B99DF8043065F342038DF804303A
:104AB80001AA012361212046FFF78EFF03B030BD14
:104AC80037B501230D4601AA61210446FFF77EFF91
:104AD80058B99DF8043065F304138DF8043001AA21
:104AE800012361212046FFF777FF03B030BD37B5BA
:104AF80001230D4601AA62210446FFF767FF58B952
:104B08009DF8043065F304138DF8043001AA0123DD
:104B180062212046FFF760FF03B030BD13B50623BE
:104B28000C466A466821FFF751FF9DF801209DF861
:104B3800003003EB022323809DF803209DF8023008
:104B480003EB022363809DF805209DF8043003EBF6
:104B58000223A38002B010BD13B502230C4601AA9C
:104B68006E21FFF733FF9DF805209DF8043003EB15
:104B78000223238002B010BD0A4601234F21FFF70C
:104B880025BF37B501230D4601AA60210446FFF76A
:104B98001DFF58B99DF8043065F345138DF80430AE
:104BA80001AA012360212046FFF716FF03B030BD9C
:104BB80037B501230D4601AA60210446FFF706FF19
:104BC80058B99DF8043065F386138DF8043001AAAE
:104BD800012360212046FFF7FFFE03B030BD37B543
:104BE80001230D4601AA62210446FFF7EFFE58B9DA
:104BF8009DF8043065F300038DF8043001AA012301
:104C080062212046FFF7E8FE03B030BD37B5012327
:104C18000D4601AA62210446FFF7D8FE58B99DF84F
:104C2800043065F382038DF8043001AA0123622160
:104C38002046FFF7D1FE03B030BD01F0F4BA0146BB
:104C4800006801F0F0BA00210120FFF7F6BF08B5AF
:104C5800FDF7CCFABDE80840FDF7A0BB03460020ED
:104C68001A5C02B970470130FAE7034600201A5C63
:104C78000AB1884200D170470130F8E7431E013974
:104C880013F8012F11F8010F824201D1002AF7D140
:104C9800101A704710B5431E0A44914200D110BD46
:104CA80011F8014B03F8014FF7E7C9B20244034674
:104CB800934200D1704703F8011BF9E74FF0FF302A
:104CC8007047FDF7CFBD08B5062201210020FDF78A
:104CD8000DFE002211460620FDF770FA0121084654
:104CE8000722FDF703FE002211460720FDF766FAAA
:104CF800082201210220FDF7F9FD002211460820B3
:104D0800FDF75CFA092201210320FDF7EFFD0022DF
:104D180011460920FDF752FA0A2201210420FDF765
:104D2800E5FD002211460A20FDF748FA052108464C
:104D38001722FDF7DBFD002211461720FDF73EFA8A
:104D4800282206210A20FDF7D1FD0022114628203D
:104D5800FDF734FA002008BD0B68A3F13002782A69
:104D68009FBF03F1804303F50E3349681A689DBF5E
:104D78000A4300201A606FF0850070470B68A3F1A2
:104D88003002782A9FBF03F1804303F50E33496848
:104D98001A689DBF8A4300201A606FF0850070472B
:104DA8000B68022B03D82BB96FF085007047053BC1
:104DB800012BF9D84A68FF2A0DD0D3B203F18043FA
:104DC80003F50E33C2F302411868C2F3042201FA54
:104DD80002F202431A600020704743685B681B694F
:104DE8000B600020704743685B68586942400A407E
:104DF80042405A610020704743685B68002099610F
:104E0800704743685B6809049961002070474368EC
:104E18005A6853694B4053610020704710B50369C5
:104E28009868F8B1884219D1DC6808689860A1428E
:104E380000D1D860002008602AB19A680A60DA6850
:104E4800996002B9D960002010E0814206D1086853
:104E58002060D8688142EDD1DC60EBE70446006849
:104E68000028F2D1002AE8D16FF0150010BDF0B586
:104E780044680120676888401E46C2F3801327EA09
:104E880000078B403B43636090FAA0F7B7FA87F7B7
:104E9800D4F808C04FF0030E7F000EFA07F72CEA8B
:104EA800070C90FAA0F7B7FA87F7C2F3C1137F008F
:104EB800BB4043EA0C03A36090FAA0F3B3FA83F370
:104EC800E7685B000EFA03F327EA030790FAA0F3FA
:104ED800B3FA83F302F030055B00C2F341229A4033
:104EE8003A43202DE26016D107292BDC90FAA0F373
:104EF800226A2BB3B3FA83F39B000F2101FA03F361
:104F080022EA030290FAA0F3B3FA83F39B0006FAAD
:104F180003F31343236290FAA0F3B3FA83F32268EE
:104F280090FAA0F05B000321B0FA80F02D0901FA95
:104F380003F3400022EA030385401D432560F0BDCA
:104F48002B46D9E7030A616A93FAA3F282B1B2FA4F
:104F580082F292000F2793FAA3F3B3FA83F307FAC6
:104F680002F29B0021EA02029E4016436662D2E7E3
:104F78002A46EEE738B5044690030D46134617D582
:104F880091070ED55A072ED55022D8060BD542F4D4
:104F9800007219031AD5616801234968AB408B6117
:104FA8000DE01022F1E79906F3D542F48062F0E7AC
:104FB800DA0313D5D80613D4C3F340139A026068F2
:104FC80000232946FFF753FF002038BD5B03F6D5C1
:104FD8000121A9402046FFF714FFF0E73022EEE751
:104FE8004FF40072EBE76FF08500EEE770B50B4603
:104FF800896821B101255E680C68854001B970BDDA
:105008008A682A4002D04B68304698471CB123680A
:1050180021461C46F2E72346FAE7F8B51F46044640
:1050280040680E461546FFF722FF112F07D10121D0
:105038002B0501FA06F104D563685B6899610020C5
:10504800F8BD2046FFF7DDFEF9E7034600695B6817
:10505800426CDB688AB1013A42641AB95A6822F490
:1050680080625A60826C1969127821F0FF010A4344
:105078001A61836C013383647047C26A910742BF27
:105088001A6842F400721A605A69520748BF1B69CD
:10509800FEF796BEC3685A6842F480725A605A682E
:1050A80042F400725A605A6842F480625A6070474B
:1050B800C3685A6822F4C0625A605A6822F4C0620F
:1050C8005A605A6822F400725A605A6822F4806260
:1050D8005A605A6822F480725A607047F8B543687B
:1050E800D9680B6823F001030B604068FFF7E0FF05
:1050F8000F684E688B68CD68CC69086A4A6AD1F82F
:1051080000C04CF4004CC1F800C0D1F800C09BB2FC
:105118002CF4004CBFB2B6B243F48043ADB2A4B293
:1051280080B292B2C1F800C00F604E608B60CD6053
:10513800CC6108624A62F8BD2DE9F0411F46436818
:105148000469DD680E4690462046FEF781FE7368C6
:1051580063643368A364337AE36287F0010700234A
:10516800C4E90C73C4E90E33A3622664A4F824804E
:105178002B6843F001032B602B6823F400632B603A
:105188002B6843F480632B60337A59070BD52B685F
:105198009A0541BF23F400731B041B0C2B602B687A
:1051A80043F480732B60BDE8F08138B50369D3E917
:1051B8000D45DA6B25B1002104BB99631AB10FE0E4
:1051C80062B984B15A634068C168FFF771FF0B6820
:1051D80023F001030B606FF004000EE004B15D637F
:1051E8000022DA63EFE739B94068C168FFF760FF6A
:1051F8000B6823F001030B60002038BD5963DCE71E
:10520800034600695B68426CDB68002A39D0022AD1
:1052180021D0032A27D0012A2AD11A6822F48062D1
:105228001A601A6822F400621A60C26A910742BFC3
:105238001A6842F400721A605A6822F480625A604E
:10524800426C013A4264826C1B691370836C0133AF
:105258008364FEF7B5BD1A6822F480621A601A6882
:1052680042F400621A605A6822F480625A607047F9
:10527800013A4264826C1B691370836C0133836446
:105288007047C26A920742BF1A6842F400721A60F5
:10529800DFE710B443680269DB685C69E40785B03E
:1052A800014630D5106A918C10F0010013D0946A31
:1052B800C91101F0060154B941F0F00190621A6970
:1052C80022F0FF020A431A6105B010BC704741F092
:1052D800F1010020F2E7106B490020B11A69C9B248
:1052E80022F0FF02EEE7186941F0010120F0FF000B
:1052F800C9B201431961526C022AE5D11A6842F415
:1053080000621A60E0E75C69240705D5196992F81C
:10531800242021F0FF01D5E75C69A40739D5106A7C
:10532800116BC00715D5A9B9906AD0B191625A69B5
:105338000192019A9A690192019A1A68910541BFEE
:1053480022F400721204120C1A601A6842F4807275
:10535800D7E731B15A690292029A9B690293029B7C
:10536800B2E7526C012A0AD11A6822F480621A60E4
:105378005A690392039A9B690393039BA4E7022A41
:10538800F6D11A6822F480621A601A6842F4006240
:10539800EDE75C6964073AD5146B24B1084605B09B
:1053A80010BCFFF752BE516C022905D0032920D04A
:1053B80005B010BCFFF724BFD16A8C0742BF19683B
:1053C80041F400711960516C01395164916C18698C
:1053D8000870906C411C9164516C013951641B69CF
:1053E8004370936C01339364104605B010BCFEF70C
:1053F800E7BC196821F480611960516C0139516466
:10540800916C1B690B70936C013393645CE758696A
:10541800000602D5106B0028C0D15B695B067FF5DA
:1054280053AF136B002B7FF44FAF0846C0E74368B8
:105438000269DB68596911F4806F59690BD021F44E
:1054480080615961196841F40071196001239363FF
:105458000069FEF7B5BC11F4007F596905D021F445
:105468000071596101235363F2E7C90506D55969EB
:1054780021F4807159610123D363E9E7704770B55E
:10548800044615461A4600230669FFF755FE60686C
:10549800FFF700FE41F2883200233046FEF7B0FCE9
:1054A80028B929462046BDE87040FFF77EBE204651
:1054B800FFF714FE6FF0040070BDF8B515461A46E4
:1054C80043680769DE6804460123FFF735FE606814
:1054D800FFF7E0FD736843F4C063736041F28832FC
:1054E80000233846FEF78CFC28B929462046BDE83B
:1054F800F840FFF75ABE2046FFF7F0FD6FF00400B2
:10550800F8BD08B5002211461F20FCF757FE1F20E2
:10551800FCF746FE002220201146FCF74FFEBDE8AE
:1055280008402020FCF73CBE2DE9F04F99460B7A45
:10553800066943F0040315460B7287B007460C460C
:105548000A460123AB420CD906F110084FF0FF338D
:105558004FF0FF324046FEF753FC1434002303AEED
:1055680050E0117A0CD2107D80EA010C1CF0010F7A
:1055780001D0400701D5890705D56FF0150348E02C
:1055880041F00201117201330C32DBB2DAE7012D6E
:1055980014BF234600230193A4F1140393E80700E2
:1055A80086E807009DF814B0DDF810A02BF006037C
:1055B8008DF80B30049BFF2B83BFFF2304939DF8CA
:1055C8001430019A8ABF03F0FD035B460DF10B020C
:1055D80013F0010F8DF8143031464B4638461CD174
:1055E800FFF74DFF002803460EDB0499039AAAEB48
:1055F800010A0A44CDE9032ABAF1000FDAD1013DC4
:10560800EDB20C34002DC2D101934046FEF7D8FB11
:10561800019B184607B0BDE8F08FFFF74EFFE1E7A2
:1056280030B5036813600579046804EBC504A34228
:1056380002D36FF0010030BD5C798C4201D0083391
:10564800F0E70020F7E74368C1F34B101B6801F04F
:105658001F01C05801238B40034214BF01230023BC
:1056680013700020704710B54368C1F34B101A68D7
:1056780001F01F01845801238B40234383500020ED
:1056880010BD10B54368C1F34B14186801F01F0131
:10569800235801228A4023EA02032350002010BD28
:1056A80038B504460D46FFF7DEFF29462046FFF7CA
:1056B800E8FF002038BD0020704713B504230469B3
:1056C80040680DEB0302A821FFF72AF9002806DB42
:1056D800BDF804302380BDF806306380002002B096
:1056E80010BD38B50469636804F108021D682721F4
:1056F8000723A847002804DB237A13F00F0F18BFED
:10570800002038BD392901D1FFF7EBBF0329FBD0B1
:105718000C290CBF6FF085006FF03C00704710B487
:105728008468A468A44610BC604730B589B061F0AD
:105738007F0144688DF807100DF1070102910121DE
:10574800606803911D46002123898DF81010CDE96A
:10575800052502A902228DF81C20FFF7E0FF09B0F9
:1057680030BD30B589B061F07F0144688DF807100D
:105778000DF107011D4602910121606823890391FB
:10578800CDE90525002107228DF810108DF81C2081
:1057980002A90222FFF7C3FF09B030BD1FB5436855
:1057A8008DF80120022258688DF800101B8902929A
:1057B8008DF80C2001A90122CDF804D0FFF7AFFF26
:1057C80005B05DF804FB10B588B043688DF8071084
:1057D8000DF107010291012158681B890391CDE958
:1057E800052107228DF81C200024022202A98DF829
:1057F8001040FFF794FF08B010BD2DE9F047984618
:10580800436888B0D3F8049093F808A08DF8041082
:10581800002301278DF810300DF10303CDE905377A
:1058280007230E46144601AD8DF81C30022253465C
:1058380002A9484602950397FFF771FFB8B99DF88A
:10584800032022EA040304EA08041C43A2420ED0FF
:10585800022303938DF810303A46534602A948466E
:105868008DF804608DF805400295FFF758FF08B0E1
:10587800BDE8F08770B5456806690C4628460121E1
:10588800FFF7C2F870B9C822002306F10C00FEF732
:10589800B7FA28B921462846BDE87040FFF73EB957
:1058A8006FF0040070BD73B5066945683060AB7D64
:1058B8005BB90DF107012846FFF75EF900280BDAFE
:1058C8006FF00404204602B070BD01212846FFF79E
:1058D8009DF90028EDDAF3E79DF80730402B56D103
:1058E80001212846FFF74DF90028E9DB6420FEF77F
:1058F80049FFAB7DF3B901212846FFF7F8F80028E6
:10590800DEDB00212846FFF796F80028D8D12B7D4A
:10591800BBB901212846FFF7A5F80028D0D12A7D78
:105928006B7DAAB96B7DEBB900212846FFF76CF8AF
:105938000446C7E701212846FFF768F90028DADAA4
:10594800BEE701212846FFF7A4F80028E1D0B7E711
:10595800002BE9D001212846FFF7B2F804460028B9
:10596800E0D0AFE701212846FFF739F904460028BF
:10597800A8D101212846FFF71BF904460028A1D128
:105988000122014606F10C0000F078FC9AE76FF05E
:10599800150497E713B5046940680DF10601FFF790
:1059A800DBF80028A4BFBDF80630638102B010BD43
:1059B80073B546680469737D0546694673B3FFF796
:1059C80059FF48BB009B6360BDF804302381337DD9
:1059D80013B369462846FFF74DFFE8B9A388BDF819
:1059E8000020E18813441BB2BDF80220A3801144B3
:1059F800BDF80400228903EBD3735B100244A38033
:105A0800C1F3C03303FA81F1C2F3C03303FA82F25F
:105A180049105210E180228102B070BD3046FFF774
:105A28007DF80028F8D1009B6360BDF8043023811D
:105A3800F2E70C2910B504460BD005D8083903291C
:105A48000AD96FF085000AE03929FAD1FFF7B0FFCB
:105A58002046FFF79FFF01E0FFF7AAFF002010BDD7
:105A680013B50C460B2C114604D8072C04D86FF03C
:105A7800850027E0392CFAD179B10829F7D11A68BD
:105A8800ADF8002069469A6840681B69ADF80220A5
:105A9800ADF80430FEF7A6FF14E01B684068322B0F
:105AA80012D006DC0A2B07D0142B0FD06FF015008C
:105AB80008E0642BFAD10321FEF7BDFF002818BFC8
:105AC8006FF0040002B010BD0221F5E70121F3E7F1
